:100000000EC029C027C026C025C024C023C022C0DE
:1000100021C020C01FC01EC01DC01CC01BC0112499
:100020001FBECFE5D2E0DEBFCDBF10E0A0E6B0E05E
:10003000E4EDF0E002C005900D92A236B107D9F7C9
:1000400010E0A2E6B0E001C01D92A336B107E1F7CF
:100050000ED03EC0D5CF0F920FB60F92C19A00C0FE
:1000600000C00000C1980F900FBE0F901895B99A6C
:10007000B89ABA98789485B7816085BF85B7826051
:1000800085BF8BB780648BBF109262001EC08091C9
:1000900062008F5F80936200809162008530A8F0DB
:1000A000809160008A3051F4C09AB99A1092600031
:1000B00080E18A95F1F700C0C098E6CFB9988091A9
:1000C00060008F5F80936000DFCFB29BDDCFDFCF1A
:0400D000F894FFCFD2
:0200D400010029
:00000001FF
